:100000000C942A000C943F000C943F000C943F0089
:100010000C943F000C943F000C943F000C943F0064
:100020000C943F000C943F000C943F000C943F0054
:100030000C943F000C943F000C943F000C943F0044
:100040000C943F000C943F000C943F000C943F0034
:100050000C943F0011241FBECFE5D8E0DEBFCDBF1A
:1000600010E0A0E6B0E0E0EEF8E102C005900D92ED
:10007000A836B107D9F70E94310B0C946E0C0C9482
:100080000000EF92FF920F931F937B018C0120E001
:1000900030E040E05FE40E94410388238CF0C80117
:1000A000B70120E030E040E05FE40E94B9010E9427
:1000B000A1039B01AC01205030404040504806C095
:1000C000C801B7010E94A1039B01AC01B901CA019B
:1000D0001F910F91FF90EF900895A0E0B0E0E3E74B
:1000E000F0E00C94370CDC012B01FA019C9192306A
:1000F00008F439C1EB018881823008F433C19430AF
:1001000069F4843009F02FC111969C91119789816F
:10011000981709F428C1A0E6B0E025C1843009F49D
:1001200021C18230A9F4923009F01DC19A01AD01BC
:1001300088E0EA010990AE01E90109929E0181502F
:10014000C1F7E201898111969C918923818308C1BD
:10015000923009F407C112962D903C901397EB0151
:100160008A819B811496AD90BD90CD90DC901797BD
:10017000EC80FD800E811F819101281B390BB90194
:1001800037FF04C066277727621B730B6032710547
:100190000CF061C0121613066CF537014801062EEB
:1001A00004C096948794779467940A94D2F721E0D8
:1001B00030E040E050E004C0220F331F441F551FC1
:1001C0006A95D2F721503040404050402E213F21C7
:1001D00040235123211531054105510521F021E02E
:1001E00030E040E050E079018A01E628F72808294C
:1001F00019293CC0232BD1F1260E371E35014601AB
:10020000062E04C096948794779467940A94D2F744
:1002100021E030E040E050E004C0220F331F441FD3
:10022000551F6A95D2F721503040404050402A2156
:100230003B214C215D21211531054105510521F05E
:1002400021E030E040E050E059016A01A628B728DB
:10025000C828D9280BC0821593052CF01C01AA24AC
:10026000BB24650103C0EE24FF24870111969C91F5
:10027000D20111968C91981709F445C0992339F051
:10028000A80197012A193B094C095D0906C0A6017E
:1002900095012E193F09400B510B57FD08C01182E3
:1002A0003382228224833583468357831DC081E0B5
:1002B00081833382228288279927DC01821B930B5A
:1002C000A40BB50B84839583A683B7830DC0220F3F
:1002D000331F441F551F24833583468357838281F0
:1002E000938101979383828324813581468157814D
:1002F000DA01C9010197A109B1098F5F9F4FAF4F83
:10030000BF4328F30BC0918333822282EA0CFB1C8B
:100310000C1D1D1DE482F5820683178383E0808314
:10032000248135814681578157FF1AC0C901AA2708
:1003300097FDA095BA2F81709070A070B0705695FF
:10034000479537952795822B932BA42BB52B848328
:100350009583A683B7838281938101969383828359
:10036000DF0101C0D201CD01CDB7DEB7E2E10C94CF
:10037000530CA0E2B0E0EFEBF1E00C94430C698386
:100380007A838B839C832D833E834F835887E9E058
:10039000EE2EF12CEC0EFD1ECE010196B7010E944F
:1003A000CA048E010F5E1F4FCE010596B8010E9450
:1003B000CA048A8991E089278A8BC701B801AE01F6
:1003C000475E5F4F0E946D000E94F503A096E6E035
:1003D0000C945F0CA0E2B0E0E0EFF1E00C94430C71
:1003E00069837A838B839C832D833E834F835887D5
:1003F000F9E0EF2EF12CEC0EFD1ECE010196B701B7
:100400000E94CA048E010F5E1F4FCE010596B801EF
:100410000E94CA04C701B801AE01475E5F4F0E9447
:100420006D000E94F503A096E6E00C945F0CA0E23C
:10043000B0E0EDE1F2E00C94370C69837A838B83B2
:100440009C832D833E834F835887CE010196BE0146
:10045000675F7F4F0E94CA04CE010596BE016F5EA2
:100460007F4F0E94CA049985923088F08989823032
:10047000C8F0943019F4823051F404C0843029F467
:10048000923081F480E690E0C6C0923049F420E0DA
:100490009A858A89981321E02A87CE010996BBC0E4
:1004A000823049F420E09A858A89981321E02A8BCA
:1004B000CE014196B0C02D843E844F8458886D880B
:1004C0007E888F88988CEE24FF248701AA24BB2481
:1004D000650140E050E060E070E0E0E0F0E0C10184
:1004E00081709070892BE9F0E60CF71C081D191D2E
:1004F0009A01AB012A0D3B1D4C1D5D1D80E090E073
:10050000A0E0B0E0E614F7040805190520F481E046
:1005100090E0A0E0B0E0BA01A901480F591F6A1F9E
:100520007B1FAA0CBB1CCC1CDD1C97FE08C081E005
:1005300090E0A0E0B0E0A82AB92ACA2ADB2A3196C6
:10054000E032F10549F0660C771C881C991C569422
:10055000479437942794C3CFFA85EA892B893C893D
:100560008B859C85280F391F2E5F3F4F17C0CA010E
:1005700081709070892B61F016950795F794E79438
:1005800080E090E0A0E0B0E8E82AF92A0A2B1B2BD3
:1005900076956795579547952F5F3F4F77FDE7CF46
:1005A0000CC0440F551F661F771F17FD4160EE0CEE
:1005B000FF1C001F111F21503040403090E05907B0
:1005C00090E0690790E4790760F32B8F3C8FDB01A3
:1005D000CA018F779070A070B07080349105A1052A
:1005E000B10561F447FD0AC0E114F10401051105EC
:1005F00029F0405C5F4F6F4F7F4F40781A8EFE1797
:1006000011F081E08A8F4D8F5E8F6F8F78A383E02A
:10061000898FCE0149960E94F503A096E2E10C94E1
:10062000530CA8E1B0E0E7E1F3E00C94430C6983DC
:100630007A838B839C832D833E834F83588789E005
:10064000E82EF12CEC0EFD1ECE010196B7010E94A2
:10065000CA048E010F5E1F4FCE010596B8010E949D
:10066000CA048985823040F08989823028F0C70128
:10067000B8010E94420501C08FEF6896E6E00C9435
:100680005F0CA8E1B0E0E7E4F3E00C94430C69836D
:100690007A838B839C832D833E834F83588789E0A5
:1006A000E82EF12CEC0EFD1ECE010196B7010E9442
:1006B000CA048E010F5E1F4FCE010596B8010E943D
:1006C000CA048985823040F08989823028F0C701C8
:1006D000B8010E94420501C08FEF6896E6E00C94D5
:1006E0005F0CA8E1B0E0E7E7F3E00C94430C69830A
:1006F0007A838B839C832D833E834F83588789E045
:10070000E82EF12CEC0EFD1ECE010196B7010E94E1
:10071000CA048E010F5E1F4FCE010596B8010E94DC
:10072000CA048985823040F08989823028F0C70167
:10073000B8010E94420501C081E06896E6E00C9491
:100740005F0CACE0B0E0E7EAF3E00C94470C69839F
:100750007A838B839C83CE010196BE016B5F7F4FB2
:100760000E94CA048D81823061F1823050F1843060
:1007700021F48E81882351F12EC02F81388537FDD9
:1007800020C06E812F3131051CF06623F9F023C0A3
:100790008EE190E0821B930B29853A854B855C8521
:1007A00004C056954795379527958A95D2F76623C5
:1007B000B1F050954095309521953F4F4F4F5F4F89
:1007C0000EC020E030E040E050E009C02FEF3FEFE6
:1007D0004FEF5FE704C020E030E040E050E8B901AF
:1007E000CA012C96E2E00C94630CDF92EF92FF9228
:1007F0000F931F93FC01E480F58006811781D1805F
:100800008081823048F480E090E0A0E1B0E0E82A06
:10081000F92A0A2B1B2BA5C0843009F49FC0823013
:1008200021F4EE24FF24870105C0E114F104010541
:10083000110519F4E0E0F0E096C0628173819FEF4A
:10084000623879070CF05BC022E83FEF261B370BBC
:100850002A3131052CF020E030E040E050E02AC0A1
:10086000B801A701022E04C0769567955795479564
:100870000A94D2F781E090E0A0E0B0E004C0880FD5
:10088000991FAA1FBB1F2A95D2F70197A109B10989
:100890008E219F21A023B1230097A105B10521F04E
:1008A00081E090E0A0E0B0E09A01AB01282B392B69
:1008B0004A2B5B2BDA01C9018F779070A070B07062
:1008C00080349105A105B10539F427FF09C0205CEA
:1008D0003F4F4F4F5F4F04C0215C3F4F4F4F5F4F23
:1008E000E0E0F0E02030A0E03A07A0E04A07A0E412
:1008F0005A0710F0E1E0F0E079018A0127C0603882
:10090000710564F5FB01E158FF4FD801C7018F77EE
:100910009070A070B07080349105A105B10539F4D4
:10092000E7FE0DC080E490E0A0E0B0E004C08FE3FB
:1009300090E0A0E0B0E0E80EF91E0A1F1B1F17FFB1
:1009400005C016950795F794E794319687E01695BC
:100950000795F794E7948A95D1F705C0EE24FF2414
:100960008701EFEFF0E06E2F679566276795902F70
:100970009F77D794DD24D7948E2F8695492F462BC9
:10098000582F5D29B701CA011F910F91FF90EF9079
:10099000DF900895FC01DB01408151812281622FAB
:1009A0006F7770E0221F2227221F9381892F880FE3
:1009B000822B282F30E0991F9927991F11969C931D
:1009C000119721153105A9F54115510561057105ED
:1009D00011F482E037C082E89FEF13969C938E93C8
:1009E00012979A01AB0167E0220F331F441F551F76
:1009F0006A95D1F783E08C930DC0220F331F441FFB
:100A0000551F12968D919C911397019713969C9365
:100A10008E931297203080E0380780E0480780E40A
:100A2000580758F314962D933D934D935C93179765
:100A300008952F3F310579F4411551056105710580
:100A400019F484E08C93089564FF03C081E08C93D3
:100A500012C01C9210C02F57304013963C932E9317
:100A6000129783E08C9387E0440F551F661F771F12
:100A70008A95D1F7706414964D935D936D937C9332
:100A8000179708951F93DC01FB019C91923008F4A5
:100A900047C08081823008F443C0943051F41196ED
:100AA0001C91843099F58181682F70E0611B710978
:100AB0003FC0843021F0923031F48230B9F181812D
:100AC000882389F12DC011961C9111978230F1F085
:100AD00081811817D9F412962D913C911397828138
:100AE00093818217930794F028173907BCF0149666
:100AF0008D919D910D90BC91A02D248135814681D1
:100B00005781281739074A075B0718F4112341F06A
:100B10000AC082179307A407B50740F4112319F000
:100B200061E070E005C06FEF7FEF02C060E070E051
:100B3000CB011F910895DF93CF93CDB7DEB72C97EC
:100B40000FB6F894DEBF0FBECDBF8A836B834C8394
:100B500019828B81883008F0BEC18A81843008F008
:100B6000BAC181E089838C81282F30E03C872B87B4
:100B70008B859C858130910509F438C12B853C8596
:100B80002230310509F474C08B859C85009709F0EB
:100B9000A1C18A81282F30E03A87298789859A85E3
:100BA0008130910549F129853A85223031052CF4AF
:100BB00089859A85009761F08EC129853A85223012
:100BC000310571F189859A8583309105E9F183C1F9
:100BD000AAE3B0E0EAE3F0E08081482F8B81282F80
:100BE00030E081E090E0022E02C0880F991F0A9445
:100BF000E2F7842B8C936FC1A7E3B0E0E7E3F0E06A
:100C00008081482F8B81282F30E081E090E0022EF8
:100C100002C0880F991F0A94E2F7842B8C935BC162
:100C2000A4E3B0E0E4E3F0E08081482F8B81282F3B
:100C300030E081E090E0022E02C0880F991F0A94F4
:100C4000E2F7842B8C9347C1A1E3B0E0E1E3F0E04D
:100C50008081482F8B81282F30E081E090E0022EA8
:100C600002C0880F991F0A94E2F7842B8C9333C13A
:100C70008A81282F30E038872F838F8198858130B3
:100C8000910509F43EC02F813885223031052CF4BE
:100C90008F819885009771F01EC12F813885223091
:100CA000310509F455C08F8198858330910509F489
:100CB00076C011C1AAE3B0E0EAE3F0E08081482FFA
:100CC0008B81282F30E081E090E002C0880F991FCF
:100CD0002A95E2F7809584238C93ABE3B0E0EBE3B5
:100CE000F0E08081482F8B81282F30E081E090E078
:100CF000022E02C0880F991F0A94E2F7842B8C936E
:100D0000EAC0A7E3B0E0E7E3F0E08081482F8B8101
:100D1000282F30E081E090E002C0880F991F2A95CB
:100D2000E2F7809584238C93A8E3B0E0E8E3F0E059
:100D30008081482F8B81282F30E081E090E0022EC7
:100D400002C0880F991F0A94E2F7842B8C93C3C0CA
:100D5000A4E3B0E0E4E3F0E08081482F8B81282F0A
:100D600030E081E090E002C0880F991F2A95E2F7F9
:100D7000809584238C93A5E3B0E0E5E3F0E08081E7
:100D8000482F8B81282F30E081E090E0022E02C0B6
:100D9000880F991F0A94E2F7842B8C939CC0A1E3DF
:100DA000B0E0E1E3F0E08081482F8B81282F30E034
:100DB00081E090E002C0880F991F2A95E2F78095A4
:100DC00084238C93A2E3B0E0E2E3F0E08081482F3B
:100DD0008B81282F30E081E090E0022E02C0880F46
:100DE000991F0A94E2F7842B8C9375C08A81282F6F
:100DF00030E03E832D838D819E818130910559F1B4
:100E00002D813E81223031052CF48D819E81009709
:100E100069F061C02D813E812230310589F18D81DB
:100E20009E818330910509F440C055C0AAE3B0E02B
:100E3000EAE3F0E08081482F8B81282F30E081E0C9
:100E400090E0022E02C0880F991F0A94E2F7809565
:100E500084238C9340C0A7E3B0E0E7E3F0E0808117
:100E6000482F8B81282F30E081E090E0022E02C0D5
:100E7000880F991F0A94E2F7809584238C932BC0E6
:100E8000A4E3B0E0E4E3F0E08081482F8B81282FD9
:100E900030E081E090E0022E02C0880F991F0A9492
:100EA000E2F7809584238C9316C0A1E3B0E0E1E3E0
:100EB000F0E08081482F8B81282F30E081E090E0A6
:100EC000022E02C0880F991F0A94E2F780958423AE
:100ED0008C9301C0198289812C960FB6F894DEBFDD
:100EE0000FBECDBFCF91DF910895DF93CF93CDB7E4
:100EF000DEB72A970FB6F894DEBF0FBECDBF8A8348
:100F00006B834C838B81883008F0FAC08A818430EF
:100F100008F0F6C081E089838C81282F30E03A8781
:100F2000298789859A85009709F475C029853A85AE
:100F30002130310509F0E3C08A81282F30E038875D
:100F40002F838F8198858130910549F12F813885D4
:100F5000223031052CF48F819885009761F0D0C044
:100F60002F8138852230310571F18F81988583304A
:100F70009105E9F1C5C0ABE3B0E0EBE3F0E08081BF
:100F8000482F8B81282F30E081E090E0022E02C0B4
:100F9000880F991F0A94E2F7842B8C93B1C0A8E3C1
:100FA000B0E0E8E3F0E08081482F8B81282F30E02B
:100FB00081E090E0022E02C0880F991F0A94E2F7A8
:100FC000842B8C939DC0A5E3B0E0E5E3F0E0808145
:100FD000482F8B81282F30E081E090E0022E02C064
:100FE000880F991F0A94E2F7842B8C9389C0A2E39F
:100FF000B0E0E2E3F0E08081482F8B81282F30E0E1
:1010000081E090E0022E02C0880F991F0A94E2F757
:10101000842B8C9375C08A81282F30E03E832D83EA
:101020008D819E818130910559F12D813E81223043
:1010300031052CF48D819E81009769F061C02D816E
:101040003E812230310589F18D819E818330910569
:1010500009F440C055C0ABE3B0E0EBE3F0E08081C1
:10106000482F8B81282F30E081E090E0022E02C0D3
:10107000880F991F0A94E2F7809584238C9340C0CF
:10108000A8E3B0E0E8E3F0E08081482F8B81282FCF
:1010900030E081E090E0022E02C0880F991F0A9490
:1010A000E2F7809584238C932BC0A5E3B0E0E5E3C1
:1010B000F0E08081482F8B81282F30E081E090E0A4
:1010C000022E02C0880F991F0A94E2F780958423AC
:1010D0008C9316C0A2E3B0E0E2E3F0E08081482FF9
:1010E0008B81282F30E081E090E0022E02C0880F33
:1010F000991F0A94E2F7809584238C9301C019828A
:1011000089812A960FB6F894DEBF0FBECDBFCF916E
:10111000DF910895DF93CF93CDB7DEB727970FB652
:10112000F894DEBF0FBECDBF8A836B835D834C8393
:101130008B81883008F07BC08A81843008F077C0CA
:101140008C819D81009709F472C081E089838A8136
:10115000282F30E03F832E834E815F81413051053F
:1011600059F18E819F818230910534F42E813F8127
:101170002115310569F05BC04E815F814230510518
:1011800079F18E819F818330910509F43DC04FC074
:10119000E9E3F0E08081282F30E08B81882F90E018
:1011A000A90102C0559547958A95E2F7CA01817059
:1011B000EC81FD8180833BC0E6E3F0E08081282F55
:1011C00030E08B81882F90E0A90102C055954795AA
:1011D0008A95E2F7CA018170EC81FD81808327C086
:1011E000E3E3F0E08081282F30E08B81882F90E0CE
:1011F000A90102C0559547958A95E2F7CA01817009
:10120000EC81FD81808313C0E0E3F0E08081282F32
:1012100030E08B81882F90E0A90102C05595479559
:101220008A95E2F7CA018170EC81FD818083898112
:1012300027960FB6F894DEBF0FBECDBFCF91DF91DA
:101240000895DF93CF93CDB7DEB72B970FB6F89401
:10125000DEBF0FBECDBF8A836B8319828A81843043
:1012600008F0BAC081E089838B81282F30E03B876A
:101270002A878A859B858130910509F43EC02A859D
:101280003B852230310509F467C08A859B8500972C
:1012900009F0A1C08A81282F30E039872887888506
:1012A000998581309105D1F0288539852230310525
:1012B0002CF488859985009761F08EC02885398542
:1012C0002230310581F0888599858330910581F040
:1012D00083C0EAE3F0E08FEF80837EC0E7E3F0E0D5
:1012E0008FEF808379C0E4E3F0E08FEF808374C0F8
:1012F000E1E3F0E08FEF80836FC08A81282F30E038
:101300003F832E838E819F8181309105C9F02E818C
:101310003F81223031052CF48E819F81009761F04E
:101320005BC02E813F812230310571F08E819F811B
:101330008330910569F050C0EAE3F0E010824CC0C0
:10134000E7E3F0E0108248C0E4E3F0E0108244C03C
:10135000E1E3F0E0108240C08A81282F30E03D8335
:101360002C838C819D8181309105E9F02C813D8118
:10137000223031052CF48C819D81009761F02CC0C6
:101380002C813D8122303105B1F08C819D818330EB
:101390009105C9F021C0EAE3F0E01082EBE3F0E050
:1013A0008FEF808319C0E7E3F0E01082E8E3F0E01C
:1013B0008FEF808311C0E4E3F0E01082E5E3F0E01A
:1013C0008FEF808309C0E1E3F0E01082E2E3F0E018
:1013D0008FEF808301C0198289812B960FB6F89414
:1013E000DEBF0FBECDBFCF91DF910895DF93CF93C6
:1013F00000D000D00F92CDB7DEB78A836B831982FD
:101400008A818430A0F581E089838A81282F30E0A9
:101410003D832C838C819D8181309105D1F02C817D
:101420003D81223031052CF48C819D81009761F043
:101430001EC02C813D812230310581F08C819D813F
:101440008330910581F013C0EBE3F0E08B81808362
:101450000EC0E8E3F0E08B81808309C0E5E3F0E0B3
:101460008B81808304C0E2E3F0E08B8180838981FB
:101470000F900F900F900F900F90CF91DF910895E4
:10148000DF93CF9300D000D000D0CDB7DEB78A83F2
:101490007C836B8319828A81843008F040C08B8101
:1014A0009C810097E1F181E089838A81282F30E0D7
:1014B0003E832D838D819E8181309105E1F02D81C8
:1014C0003E81223031052CF48D819E81009761F0A0
:1014D00026C02D813E8122303105A1F08D819E8173
:1014E00083309105B1F01BC0E9E3F0E08081EB812E
:1014F000FC81808314C0E6E3F0E08081EB81FC8115
:1015000080830DC0E3E3F0E08081EB81FC81808388
:1015100006C0E0E3F0E08081EB81FC81808389817B
:1015200026960FB6F894DEBF0FBECDBFCF91DF91E8
:101530000895DF93CF930F92CDB7DEB7EAE3F0E0E3
:101540008FEF8083E7E3F0E08FE08083E4E3F0E077
:101550008FEF8083E1E3F0E082E08083EBE3F0E073
:101560008FEF8083E8E3F0E080EE8083E5E3F0E056
:101570001082E2E3F0E010820F90CF91DF910895A6
:10158000DF93CF9300D000D0CDB7DEB780E88B8358
:1015900083E390E09A838983ABE2B0E0EBE2F0E092
:1015A00080818D7F8C93AAE2B0E0EAE2F0E0808156
:1015B00088608C93AAE2B0E0EAE2F0E0808180618A
:1015C0008C93AAE2B0E0EAE2F0E080818B7F8C931A
:1015D0008B8184608B838B8182608B838B8188601D
:1015E0008B83E0E4F0E08B818083E9E2F0E08981A5
:1015F0008083E0E4F0E089819A81892F99278083B4
:101600000F900F900F900F90CF91DF910895DF937F
:10161000CF93CDB7DEB7EBE2F0E080818823DCF733
:10162000ECE2F0E08081CF91DF910895DF93CF93DA
:1016300000D0CDB7DEB78983EBE2F0E08081829500
:1016400086958770882F90E0817090700097A1F345
:10165000ECE2F0E0898180830F900F90CF91DF91D1
:101660000895DF93CF93CDB7DEB76D970FB6F8949B
:10167000DEBF0FBECDBF0E94990A0E94C00A0E9421
:10168000070B8D8F80E090E0A8E4B2E4898F9A8FF9
:10169000AB8FBC8F698D7A8D8B8D9C8D20E030E077
:1016A0004AEF54E40E941702DC01CB018D8B9E8B24
:1016B000AF8BB88F6D897E898F89988D20E030E05F
:1016C00040E85FE30E94710388232CF481E090E0FE
:1016D0009C8B8B8B3FC06D897E898F89988D20E094
:1016E0003FEF4FE757E40E94110318164CF5698D40
:1016F0007A8D8B8D9C8D20E030E040E251E40E9499
:101700001702DC01CB01BC01CD010E944100DC01CC
:10171000CB019C8B8B8B0FC088EC90E09A8B898BD4
:1017200089899A890197F1F79A8B898B8B899C8992
:1017300001979C8B8B8B8B899C89009769F714C0D0
:101740006D897E898F89988D0E944100DC01CB01D3
:101750009C8B8B8B8B899C89988B8F878F859889A5
:101760000197F1F7988B8F878D8D813429F482E072
:1017700060E041E00E9475078D8D833529F482E099
:1017800060E040E00E94750780E090E0A8E4B3E4E8
:101790008B879C87AD87BE876B857C858D859E8575
:1017A00020E030E04AEF54E40E941702DC01CB0154
:1017B0008F839887A987BA876F81788589859A856D
:1017C00020E030E040E85FE30E94710388232CF4BE
:1017D00081E090E09E838D833FC06F81788589850D
:1017E0009A8520E03FEF4FE757E40E941103181657
:1017F0004CF56B857C858D859E8520E030E040E250
:1018000051E40E941702DC01CB01BC01CD010E9412
:101810004100DC01CB019E838D830FC088EC90E0FA
:101820009C838B838B819C810197F1F79C838B83B5
:101830008D819E8101979E838D838D819E810097EE
:1018400069F71DCF6F81788589859A850E9441004F
:10185000DC01CB019E838D838D819E819A83898358
:1018600089819A810197F1F79A83898308CF2F9212
:101870003F924F925F926F927F928F929F92AF9220
:10188000BF92CF92DF92EF92FF920F931F93CF936D
:10189000DF93CDB7DEB7CA1BDB0B0FB6F894DEBF04
:1018A0000FBECDBF09942A88398848885F846E842A
:1018B0007D848C849B84AA84B984C884DF80EE8074
:1018C000FD800C811B81AA81B981CE0FD11D0FB67D
:1018D000F894DEBF0FBECDBFED010895F894FFCFA1
:0818E000000000000000000000
:00000001FF
